{
  "contractName": "TokenWallet",
  "abi": [
    {
      "constant": true,
      "inputs": [
        {
          "internalType": "uint256",
          "name": "",
          "type": "uint256"
        }
      ],
      "name": "tokenToOwner",
      "outputs": [
        {
          "internalType": "address",
          "name": "",
          "type": "address"
        }
      ],
      "payable": false,
      "stateMutability": "view",
      "type": "function"
    },
    {
      "constant": true,
      "inputs": [
        {
          "internalType": "uint256",
          "name": "",
          "type": "uint256"
        }
      ],
      "name": "tokens",
      "outputs": [
        {
          "internalType": "uint256",
          "name": "id",
          "type": "uint256"
        }
      ],
      "payable": false,
      "stateMutability": "view",
      "type": "function"
    },
    {
      "constant": false,
      "inputs": [],
      "name": "createToken",
      "outputs": [],
      "payable": false,
      "stateMutability": "nonpayable",
      "type": "function"
    },
    {
      "constant": false,
      "inputs": [
        {
          "internalType": "address",
          "name": "_destination",
          "type": "address"
        },
        {
          "internalType": "uint256",
          "name": "_number",
          "type": "uint256"
        }
      ],
      "name": "spendToken",
      "outputs": [],
      "payable": false,
      "stateMutability": "nonpayable",
      "type": "function"
    },
    {
      "constant": false,
      "inputs": [],
      "name": "getToken",
      "outputs": [
        {
          "internalType": "uint256",
          "name": "",
          "type": "uint256"
        }
      ],
      "payable": false,
      "stateMutability": "nonpayable",
      "type": "function"
    },
    {
      "constant": false,
      "inputs": [
        {
          "internalType": "address",
          "name": "_address",
          "type": "address"
        }
      ],
      "name": "getTokenFromAddress",
      "outputs": [
        {
          "internalType": "uint256",
          "name": "",
          "type": "uint256"
        }
      ],
      "payable": false,
      "stateMutability": "nonpayable",
      "type": "function"
    }
  ],
  "bytecode": "0x60806040526000805534801561001457600080fd5b50610293806100246000396000f3fe608060405234801561001057600080fd5b50600436106100625760003560e01c806321df0da7146100675780634f64b2be146100815780639cbf9e361461009e578063bc53f936146100a8578063cc0b2c9f146100ce578063d91eef1114610107575b600080fd5b61006f610133565b60408051918252519081900360200190f35b61006f6004803603602081101561009757600080fd5b5035610143565b6100a6610161565b005b61006f600480360360208110156100be57600080fd5b50356001600160a01b03166101da565b6100eb600480360360208110156100e457600080fd5b50356101f5565b604080516001600160a01b039092168252519081900360200190f35b6100a66004803603604081101561011d57600080fd5b506001600160a01b038135169060200135610210565b600061013e336101da565b905090565b6001818154811061015057fe5b600091825260209091200154905081565b60008054600190810180835560408051602080820183529281528354808501855584865290517fb10e2d527612073b26eecdfd717e6a320cf44b4afac2b0732d9fcbe2b7fa0cf682015584526002825280842080546001600160a01b031916339081179091558452600390915290912080549091019055565b6001600160a01b031660009081526003602052604090205490565b6002602052600090815260409020546001600160a01b031681565b3360009081526003602052604090205481111561022c57600080fd5b33600090815260036020526040808220805484900390556001600160a01b03939093168152919091208054909101905556fea265627a7a72315820965caee794198e9a37d23de3d90c2a33b659304a5d5c662de6361a0ece0f4f1464736f6c634300050c0032",
  "source": "pragma solidity >=0.4.21 <0.6.0;\n\ncontract TokenWallet {\n    uint registerId = 0;\n    struct Token {\n        uint id;\n    }\n\n    Token[] public tokens;\n\n    mapping (uint => address) public tokenToOwner;\n    mapping (address => uint) ownerTokenCount;\n\n    function createToken() public {\n        registerId++;\n        uint id = tokens.push(Token(registerId)) - 1;\n        tokenToOwner[id] = msg.sender;\n        ownerTokenCount[msg.sender]++;\n    }\n    function spendToken(address _destination, uint _number) public {\n        require(ownerTokenCount[msg.sender] >= _number);\n        ownerTokenCount[msg.sender] -= _number;\n        ownerTokenCount[_destination] += _number;\n    }\n    function getToken() public returns (uint) {\n        return getTokenFromAddress(msg.sender);\n    }\n    function getTokenFromAddress(address _address) public returns (uint) {\n        return ownerTokenCount[_address];\n    }\n}\n",
  "sourcePath": "/home/marttave/500iq/contracts/test.sol",
  "compiler": {
    "name": "solc",
    "version": "0.5.12+commit.7709ece9.Emscripten.clang"
  },
  "schemaVersion": "3.0.16",
  "updatedAt": "2019-10-05T01:56:33.681Z",
  "devdoc": {
    "methods": {}
  },
  "userdoc": {
    "methods": {}
  }
}